{
  "_format": "hh3-artifact-1",
  "contractName": "MicroArena",
  "sourceName": "contract/MicroArena.sol",
  "abi": [
    {
      "inputs": [
        {
          "internalType": "address",
          "name": "_cUSDAddress",
          "type": "address"
        }
      ],
      "stateMutability": "nonpayable",
      "type": "constructor"
    },
    {
      "inputs": [],
      "name": "AlreadyCommitted",
      "type": "error"
    },
    {
      "inputs": [],
      "name": "DeadlineNotPassed",
      "type": "error"
    },
    {
      "inputs": [],
      "name": "InsufficientAllowance",
      "type": "error"
    },
    {
      "inputs": [],
      "name": "InvalidReveal",
      "type": "error"
    },
    {
      "inputs": [],
      "name": "InvalidStake",
      "type": "error"
    },
    {
      "inputs": [],
      "name": "MatchAlreadyFull",
      "type": "error"
    },
    {
      "inputs": [],
      "name": "MatchNotActive",
      "type": "error"
    },
    {
      "inputs": [],
      "name": "MatchNotFound",
      "type": "error"
    },
    {
      "inputs": [],
      "name": "NotCommitted",
      "type": "error"
    },
    {
      "inputs": [],
      "name": "NotPlayerInMatch",
      "type": "error"
    },
    {
      "inputs": [
        {
          "internalType": "address",
          "name": "owner",
          "type": "address"
        }
      ],
      "name": "OwnableInvalidOwner",
      "type": "error"
    },
    {
      "inputs": [
        {
          "internalType": "address",
          "name": "account",
          "type": "address"
        }
      ],
      "name": "OwnableUnauthorizedAccount",
      "type": "error"
    },
    {
      "inputs": [],
      "name": "ReentrancyGuardReentrantCall",
      "type": "error"
    },
    {
      "inputs": [],
      "name": "TransferFailed",
      "type": "error"
    },
    {
      "anonymous": false,
      "inputs": [
        {
          "indexed": true,
          "internalType": "uint256",
          "name": "matchId",
          "type": "uint256"
        },
        {
          "indexed": true,
          "internalType": "address",
          "name": "canceller",
          "type": "address"
        }
      ],
      "name": "MatchCancelled",
      "type": "event"
    },
    {
      "anonymous": false,
      "inputs": [
        {
          "indexed": true,
          "internalType": "uint256",
          "name": "matchId",
          "type": "uint256"
        },
        {
          "indexed": true,
          "internalType": "address",
          "name": "winner",
          "type": "address"
        },
        {
          "indexed": false,
          "internalType": "uint256",
          "name": "payout",
          "type": "uint256"
        }
      ],
      "name": "MatchCompleted",
      "type": "event"
    },
    {
      "anonymous": false,
      "inputs": [
        {
          "indexed": true,
          "internalType": "uint256",
          "name": "matchId",
          "type": "uint256"
        },
        {
          "indexed": true,
          "internalType": "address",
          "name": "player1",
          "type": "address"
        },
        {
          "indexed": false,
          "internalType": "enum MicroArena.GameType",
          "name": "gameType",
          "type": "uint8"
        },
        {
          "indexed": false,
          "internalType": "uint256",
          "name": "stake",
          "type": "uint256"
        }
      ],
      "name": "MatchCreated",
      "type": "event"
    },
    {
      "anonymous": false,
      "inputs": [
        {
          "indexed": true,
          "internalType": "uint256",
          "name": "matchId",
          "type": "uint256"
        },
        {
          "indexed": true,
          "internalType": "address",
          "name": "player2",
          "type": "address"
        }
      ],
      "name": "MatchJoined",
      "type": "event"
    },
    {
      "anonymous": false,
      "inputs": [
        {
          "indexed": true,
          "internalType": "address",
          "name": "previousOwner",
          "type": "address"
        },
        {
          "indexed": true,
          "internalType": "address",
          "name": "newOwner",
          "type": "address"
        }
      ],
      "name": "OwnershipTransferred",
      "type": "event"
    },
    {
      "anonymous": false,
      "inputs": [
        {
          "indexed": true,
          "internalType": "uint256",
          "name": "matchId",
          "type": "uint256"
        },
        {
          "indexed": true,
          "internalType": "address",
          "name": "player",
          "type": "address"
        },
        {
          "indexed": false,
          "internalType": "bytes32",
          "name": "commitHash",
          "type": "bytes32"
        }
      ],
      "name": "ScoreCommitted",
      "type": "event"
    },
    {
      "anonymous": false,
      "inputs": [
        {
          "indexed": true,
          "internalType": "uint256",
          "name": "matchId",
          "type": "uint256"
        },
        {
          "indexed": true,
          "internalType": "address",
          "name": "player",
          "type": "address"
        },
        {
          "indexed": false,
          "internalType": "uint256",
          "name": "score",
          "type": "uint256"
        }
      ],
      "name": "ScoreRevealed",
      "type": "event"
    },
    {
      "anonymous": false,
      "inputs": [
        {
          "indexed": true,
          "internalType": "uint256",
          "name": "matchId",
          "type": "uint256"
        },
        {
          "indexed": true,
          "internalType": "address",
          "name": "claimer",
          "type": "address"
        },
        {
          "indexed": true,
          "internalType": "address",
          "name": "winner",
          "type": "address"
        }
      ],
      "name": "TimeoutClaimed",
      "type": "event"
    },
    {
      "inputs": [],
      "name": "MAX_FEE",
      "outputs": [
        {
          "internalType": "uint256",
          "name": "",
          "type": "uint256"
        }
      ],
      "stateMutability": "view",
      "type": "function"
    },
    {
      "inputs": [],
      "name": "cUSD",
      "outputs": [
        {
          "internalType": "contract IERC20",
          "name": "",
          "type": "address"
        }
      ],
      "stateMutability": "view",
      "type": "function"
    },
    {
      "inputs": [
        {
          "internalType": "uint256",
          "name": "matchId",
          "type": "uint256"
        }
      ],
      "name": "cancelMatch",
      "outputs": [],
      "stateMutability": "nonpayable",
      "type": "function"
    },
    {
      "inputs": [
        {
          "internalType": "uint256",
          "name": "matchId",
          "type": "uint256"
        }
      ],
      "name": "claimTimeout",
      "outputs": [],
      "stateMutability": "nonpayable",
      "type": "function"
    },
    {
      "inputs": [
        {
          "internalType": "uint256",
          "name": "matchId",
          "type": "uint256"
        },
        {
          "internalType": "bytes32",
          "name": "scoreHash",
          "type": "bytes32"
        }
      ],
      "name": "commitScore",
      "outputs": [],
      "stateMutability": "nonpayable",
      "type": "function"
    },
    {
      "inputs": [],
      "name": "commitTimeout",
      "outputs": [
        {
          "internalType": "uint256",
          "name": "",
          "type": "uint256"
        }
      ],
      "stateMutability": "view",
      "type": "function"
    },
    {
      "inputs": [
        {
          "internalType": "enum MicroArena.GameType",
          "name": "gameType",
          "type": "uint8"
        },
        {
          "internalType": "uint256",
          "name": "stake",
          "type": "uint256"
        }
      ],
      "name": "createMatch",
      "outputs": [
        {
          "internalType": "uint256",
          "name": "",
          "type": "uint256"
        }
      ],
      "stateMutability": "nonpayable",
      "type": "function"
    },
    {
      "inputs": [
        {
          "internalType": "uint256",
          "name": "amount",
          "type": "uint256"
        }
      ],
      "name": "emergencyWithdraw",
      "outputs": [],
      "stateMutability": "nonpayable",
      "type": "function"
    },
    {
      "inputs": [],
      "name": "feeCollector",
      "outputs": [
        {
          "internalType": "address",
          "name": "",
          "type": "address"
        }
      ],
      "stateMutability": "view",
      "type": "function"
    },
    {
      "inputs": [
        {
          "internalType": "enum MicroArena.GameType",
          "name": "gameType",
          "type": "uint8"
        },
        {
          "internalType": "uint256",
          "name": "minStake",
          "type": "uint256"
        },
        {
          "internalType": "uint256",
          "name": "maxStake",
          "type": "uint256"
        }
      ],
      "name": "getAvailableMatches",
      "outputs": [
        {
          "internalType": "uint256[]",
          "name": "",
          "type": "uint256[]"
        }
      ],
      "stateMutability": "view",
      "type": "function"
    },
    {
      "inputs": [
        {
          "internalType": "uint256",
          "name": "matchId",
          "type": "uint256"
        }
      ],
      "name": "getMatch",
      "outputs": [
        {
          "components": [
            {
              "internalType": "uint256",
              "name": "id",
              "type": "uint256"
            },
            {
              "internalType": "enum MicroArena.GameType",
              "name": "gameType",
              "type": "uint8"
            },
            {
              "internalType": "address",
              "name": "player1",
              "type": "address"
            },
            {
              "internalType": "address",
              "name": "player2",
              "type": "address"
            },
            {
              "internalType": "uint256",
              "name": "stake",
              "type": "uint256"
            },
            {
              "internalType": "enum MicroArena.MatchStatus",
              "name": "status",
              "type": "uint8"
            },
            {
              "internalType": "bytes32",
              "name": "p1CommitHash",
              "type": "bytes32"
            },
            {
              "internalType": "bytes32",
              "name": "p2CommitHash",
              "type": "bytes32"
            },
            {
              "internalType": "uint256",
              "name": "p1Score",
              "type": "uint256"
            },
            {
              "internalType": "uint256",
              "name": "p2Score",
              "type": "uint256"
            },
            {
              "internalType": "address",
              "name": "winner",
              "type": "address"
            },
            {
              "internalType": "uint256",
              "name": "createdAt",
              "type": "uint256"
            },
            {
              "internalType": "uint256",
              "name": "commitDeadline",
              "type": "uint256"
            },
            {
              "internalType": "uint256",
              "name": "revealDeadline",
              "type": "uint256"
            }
          ],
          "internalType": "struct MicroArena.Match",
          "name": "",
          "type": "tuple"
        }
      ],
      "stateMutability": "view",
      "type": "function"
    },
    {
      "inputs": [
        {
          "internalType": "address",
          "name": "player",
          "type": "address"
        }
      ],
      "name": "getPlayerMatches",
      "outputs": [
        {
          "internalType": "uint256[]",
          "name": "",
          "type": "uint256[]"
        }
      ],
      "stateMutability": "view",
      "type": "function"
    },
    {
      "inputs": [
        {
          "internalType": "address",
          "name": "player",
          "type": "address"
        }
      ],
      "name": "getPlayerStats",
      "outputs": [
        {
          "internalType": "uint256",
          "name": "wins",
          "type": "uint256"
        },
        {
          "internalType": "uint256",
          "name": "losses",
          "type": "uint256"
        }
      ],
      "stateMutability": "view",
      "type": "function"
    },
    {
      "inputs": [
        {
          "internalType": "uint256",
          "name": "matchId",
          "type": "uint256"
        }
      ],
      "name": "joinMatch",
      "outputs": [],
      "stateMutability": "nonpayable",
      "type": "function"
    },
    {
      "inputs": [
        {
          "internalType": "uint256",
          "name": "",
          "type": "uint256"
        }
      ],
      "name": "matches",
      "outputs": [
        {
          "internalType": "uint256",
          "name": "id",
          "type": "uint256"
        },
        {
          "internalType": "enum MicroArena.GameType",
          "name": "gameType",
          "type": "uint8"
        },
        {
          "internalType": "address",
          "name": "player1",
          "type": "address"
        },
        {
          "internalType": "address",
          "name": "player2",
          "type": "address"
        },
        {
          "internalType": "uint256",
          "name": "stake",
          "type": "uint256"
        },
        {
          "internalType": "enum MicroArena.MatchStatus",
          "name": "status",
          "type": "uint8"
        },
        {
          "internalType": "bytes32",
          "name": "p1CommitHash",
          "type": "bytes32"
        },
        {
          "internalType": "bytes32",
          "name": "p2CommitHash",
          "type": "bytes32"
        },
        {
          "internalType": "uint256",
          "name": "p1Score",
          "type": "uint256"
        },
        {
          "internalType": "uint256",
          "name": "p2Score",
          "type": "uint256"
        },
        {
          "internalType": "address",
          "name": "winner",
          "type": "address"
        },
        {
          "internalType": "uint256",
          "name": "createdAt",
          "type": "uint256"
        },
        {
          "internalType": "uint256",
          "name": "commitDeadline",
          "type": "uint256"
        },
        {
          "internalType": "uint256",
          "name": "revealDeadline",
          "type": "uint256"
        }
      ],
      "stateMutability": "view",
      "type": "function"
    },
    {
      "inputs": [],
      "name": "owner",
      "outputs": [
        {
          "internalType": "address",
          "name": "",
          "type": "address"
        }
      ],
      "stateMutability": "view",
      "type": "function"
    },
    {
      "inputs": [],
      "name": "platformFeePercent",
      "outputs": [
        {
          "internalType": "uint256",
          "name": "",
          "type": "uint256"
        }
      ],
      "stateMutability": "view",
      "type": "function"
    },
    {
      "inputs": [
        {
          "internalType": "address",
          "name": "",
          "type": "address"
        }
      ],
      "name": "playerLosses",
      "outputs": [
        {
          "internalType": "uint256",
          "name": "",
          "type": "uint256"
        }
      ],
      "stateMutability": "view",
      "type": "function"
    },
    {
      "inputs": [
        {
          "internalType": "address",
          "name": "",
          "type": "address"
        },
        {
          "internalType": "uint256",
          "name": "",
          "type": "uint256"
        }
      ],
      "name": "playerMatches",
      "outputs": [
        {
          "internalType": "uint256",
          "name": "",
          "type": "uint256"
        }
      ],
      "stateMutability": "view",
      "type": "function"
    },
    {
      "inputs": [
        {
          "internalType": "address",
          "name": "",
          "type": "address"
        }
      ],
      "name": "playerWins",
      "outputs": [
        {
          "internalType": "uint256",
          "name": "",
          "type": "uint256"
        }
      ],
      "stateMutability": "view",
      "type": "function"
    },
    {
      "inputs": [],
      "name": "renounceOwnership",
      "outputs": [],
      "stateMutability": "nonpayable",
      "type": "function"
    },
    {
      "inputs": [
        {
          "internalType": "uint256",
          "name": "matchId",
          "type": "uint256"
        },
        {
          "internalType": "uint256",
          "name": "score",
          "type": "uint256"
        },
        {
          "internalType": "bytes32",
          "name": "salt",
          "type": "bytes32"
        },
        {
          "internalType": "uint256",
          "name": "commitBlock",
          "type": "uint256"
        }
      ],
      "name": "revealScore",
      "outputs": [],
      "stateMutability": "nonpayable",
      "type": "function"
    },
    {
      "inputs": [],
      "name": "revealTimeout",
      "outputs": [
        {
          "internalType": "uint256",
          "name": "",
          "type": "uint256"
        }
      ],
      "stateMutability": "view",
      "type": "function"
    },
    {
      "inputs": [
        {
          "internalType": "address",
          "name": "newCollector",
          "type": "address"
        }
      ],
      "name": "setFeeCollector",
      "outputs": [],
      "stateMutability": "nonpayable",
      "type": "function"
    },
    {
      "inputs": [
        {
          "internalType": "uint256",
          "name": "newFeePercent",
          "type": "uint256"
        }
      ],
      "name": "setPlatformFee",
      "outputs": [],
      "stateMutability": "nonpayable",
      "type": "function"
    },
    {
      "inputs": [
        {
          "internalType": "uint256",
          "name": "newCommitTimeout",
          "type": "uint256"
        },
        {
          "internalType": "uint256",
          "name": "newRevealTimeout",
          "type": "uint256"
        }
      ],
      "name": "setTimeouts",
      "outputs": [],
      "stateMutability": "nonpayable",
      "type": "function"
    },
    {
      "inputs": [],
      "name": "totalFeesCollected",
      "outputs": [
        {
          "internalType": "uint256",
          "name": "",
          "type": "uint256"
        }
      ],
      "stateMutability": "view",
      "type": "function"
    },
    {
      "inputs": [
        {
          "internalType": "address",
          "name": "newOwner",
          "type": "address"
        }
      ],
      "name": "transferOwnership",
      "outputs": [],
      "stateMutability": "nonpayable",
      "type": "function"
    }
  ],
  "bytecode": "0x60a03461011957601f61205338819003918201601f19168301916001600160401b0383118484101761011d5780849260209460405283398101031261011957516001600160a01b038116908190036101195760015f5533156101065760018054336001600160a01b0319821681179092556040519291906001600160a01b03167f8be0079c531659141344cd1fd0a4f28419497f9722a3daafe3b4186f6b6457e05f80a36002805561012c60035560b4600455608052600a80546001600160a01b03191633179055611f2190816101328239608051818181610206015281816105ff015281816107cc0152818161141d0152818161189601528181611c820152611dd30152f35b631e4fbdf760e01b5f525f60045260245ffd5b5f80fd5b634e487b7160e01b5f52604160045260245ffdfe60806040526004361015610011575f80fd5b5f3560e01c806312e8e2c3146118c55780631fccf672146118815780633d092b3d146116905780634376cb34146116735780634768d4ef146115855780634fd66eae1461153d5780635312ea8e146113ec5780635411333014611394578063558c02771461103157806360c6d8ae14611014578063715018a614610fb957806377cbc40014610e3e5780637c4b35cf14610dc057806386e773f114610b955780638b31fb8914610b5d5780638c639a8514610b405780638caf03fb14610aca5780638da5cb5b14610aa25780639c4e13291461077a578063a42dce80146106f7578063b60095a5146106da578063bc063e1a146106bf578063c415b95c14610697578063d02c8cdf14610560578063e5034bc614610430578063f2fde38b146103aa578063feb8c438146101895763fedb848a1461014d575f80fd5b34610185576020366003190112610185576001600160a01b0361016e611940565b165f526009602052602060405f2054604051908152f35b5f80fd5b34610185576020366003190112610185576004356101a5611bf0565b805f52600660205260405f2080541561039b576002810180546001600160a01b031661038c57600482019160ff8354166101de81611922565b61037d57604051636eb1769f60e11b8152336004820152306024820152906001600160a01b037f00000000000000000000000000000000000000000000000000000000000000001690602083604481855afa92831561032e575f93610348575b5060030154809210610339576040516323b872dd60e01b81523360048201523060248201526044810192909252602090829060649082905f905af190811561032e575f916102ff575b50156102f05780546001600160a01b03191633908117909155815460ff19166001179091555f9081526007602052604090206102c4908290611a52565b33907f50d6e5d288766a7340b6110b6738cac822c48c128a47399df2fad303041f8d505f80a360015f55005b6312171d8360e31b5f5260045ffd5b610321915060203d602011610327575b61031981836119e9565b810190611a0b565b84610287565b503d61030f565b6040513d5f823e3d90fd5b6313be252b60e01b5f5260045ffd5b9092506020813d602011610375575b81610364602093836119e9565b81010312610185575191600361023e565b3d9150610357565b6353261a8f60e11b5f5260045ffd5b638310f64360e01b5f5260045ffd5b631632113760e31b5f5260045ffd5b34610185576020366003190112610185576103c3611940565b6103cb611ae9565b6001600160a01b0316801561041d57600180546001600160a01b0319811683179091556001600160a01b03167f8be0079c531659141344cd1fd0a4f28419497f9722a3daafe3b4186f6b6457e05f80a3005b631e4fbdf760e01b5f525f60045260245ffd5b3461018557606036600319011261018557600435600681101561018557602435604435916005549061046182611aa3565b935f9360015b848111156104b557868661047a81611aa3565b915f5b8281106104965760405180610492868261197f565b0390f35b806104a360019284611ad5565b516104ae8287611ad5565b520161047d565b805f52600660205260405f208360ff6004830154166104d381611922565b15918261053c575b8261052c575b8261051d575b50506104fc575b6104f790611a44565b610467565b94610515818761050f6104f7948b611ad5565b52611a44565b9590506104ee565b600301541115905083896104e7565b91508360038301541015916104e1565b91508560ff60018401541661055082611922565b61055981611922565b14916104db565b346101855760203660031901126101855760043561057c611bf0565b805f52600660205260405f2080541561039b57600181015460081c6001600160a01b031633819003610688576004820190815460ff81166105bc81611922565b61037d5760ff191660051790915560039091015460405163a9059cbb60e01b81526001600160a01b0390921660048301526024820152602081806044810103815f7f00000000000000000000000000000000000000000000000000000000000000006001600160a01b03165af190811561032e575f91610669575b50156102f05733907f34d66c87f348a9492b2a7fe1463b02de9cab509ca7872ee83878909d9805c3a85f80a360015f55005b610682915060203d6020116103275761031981836119e9565b82610637565b63ff6437b360e01b5f5260045ffd5b34610185575f36600319011261018557600a546040516001600160a01b039091168152602090f35b34610185575f366003190112610185576020604051600a8152f35b34610185575f366003190112610185576020600354604051908152f35b3461018557602036600319011261018557610710611940565b610718611ae9565b6001600160a01b03168015610743576bffffffffffffffffffffffff60a01b600a541617600a555f80f35b60405162461bcd60e51b815260206004820152600f60248201526e496e76616c6964206164647265737360881b6044820152606490fd5b3461018557604036600319011261018557600435600681101561018557602435906107a3611bf0565b8115610a9357604051636eb1769f60e11b81523360048201523060248201526001600160a01b037f00000000000000000000000000000000000000000000000000000000000000001690602081604481855afa801561032e5784915f91610a5e575b5010610339576040516323b872dd60e01b81523360048201523060248201526044810184905290602090829060649082905f905af190811561032e575f91610a3f575b50156102f05760055461085a90611a44565b918260055560405161086b816119b8565b838152836020820161087c85611922565b8481526040830190338252606084015f81526080850186815260a086015f815260c087015f815260e08801905f82526101008901925f84526101208a01945f86526101408b01965f88526101608c0198428a526101808d019a8d5f8d526101a0019c5f8e525f52600660205260405f20809e51815560010191519061090082611922565b61090982611922565b82549051610100600160a81b0360089190911b1660ff929092166001600160a81b0319909116171790555160028c0180546001600160a01b039092166001600160a01b03199092169190911790555160038b01555160048a019061096c81611922565b61097581611922565b60ff198254169060ff16179055516005890155516006880155516007870155516008860155600160a01b600190039051166009850190600160a01b60019003166bffffffffffffffffffffffff60a01b82541617905551600a84015551600b8301555190600c0155335f5260076020528260405f20906109f491611a52565b60405191610a0181611922565b8252602082015281339160407fa4eaf68a76137555482692357881c46e308a60bd8681cdc23dd26a52effe231491a360015f55604051908152602090f35b610a58915060203d6020116103275761031981836119e9565b83610848565b9150506020813d602011610a8b575b81610a7a602093836119e9565b810103126101855783905185610805565b3d9150610a6d565b634eba4d4960e11b5f5260045ffd5b34610185575f366003190112610185576001546040516001600160a01b039091168152602090f35b3461018557604036600319011261018557602435600435610ae9611ae9565b80151580610b37575b15610aff57600355600455005b60405162461bcd60e51b815260206004820152601060248201526f496e76616c69642074696d656f75747360801b6044820152606490fd5b50811515610af2565b34610185575f366003190112610185576020600254604051908152f35b34610185576020366003190112610185576001600160a01b03610b7e611940565b165f526008602052602060405f2054604051908152f35b3461018557602036600319011261018557600435610bb1611bf0565b805f52600660205260405f2080541561039b57600181015460081c6001600160a01b03163381141580610da9575b61068857600482019060ff825416610bf681611922565b6001811480610d9c575b80610d8f575b15610cd9575060058301541590811580610ccd575b15610c8a5760099150925b0180546001600160a01b0319166001600160a01b038416179055805460ff19166004179055610c5482611c0e565b6001600160a01b03169033907fd9e6b8699ed901e5a7c903961e4cf1c22ba951a90b004886aa4d8dc7ef63458f5f80a460015f55005b50600683015415159081610cc5575b5015610cb65760028201546001600160a01b031691600990610c26565b6302eb354360e41b5f5260045ffd5b905084610c99565b50600684015415610c1b565b610ce281611922565b60028114908115610d7b575b501561037d57600c830154421115610cb65760078301541590811580610d6f575b15610d1e576009915092610c26565b50600883015415801580610d68575b15610d4b57505060028201546001600160a01b031691600990610c26565b81610d60575b5015610cb65760095f92610c26565b905084610d51565b5081610d2d565b50600884015415610d0f565b60039150610d8881611922565b1485610cee565b50600b8401544211610c06565b50600b8401541515610c00565b5060028201546001600160a01b0316331415610bdf565b34610185576020366003190112610185576001600160a01b03610de1611940565b165f52600760205260405f206040519081602082549182815201915f5260205f20905f5b818110610e285761049285610e1c818703826119e9565b6040519182918261197f565b8254845260209093019260019283019201610e05565b346101855760403660031901126101855760043560243590805f52600660205260405f2080541561039b576004810160ff815416610e7b81611922565b60018114159081610fa4575b5061037d5760018201543360089190911c6001600160a01b031614801580610f8d575b610688578415610f7e5715610f6c57600582018054610f5d578490555b6005820154151580610f50575b15610f2a57600260ff1982541617905542600b820155600c610ef860045442611a23565b9101555b6040519182527f2ecf1060bd564763fe3441b33336591c4f6c10b56b72d6b8a9694c943d73af2f60203393a3005b50600b01805415610f3c575b50610efc565b610f4860035442611a23565b905582610f36565b5060068201541515610ed4565b6317fd8aab60e31b5f5260045ffd5b600682018054610f5d57849055610ec7565b639ea6d12760e01b5f5260045ffd5b5060028301546001600160a01b0316331415610eaa565b60029150610fb181611922565b141585610e87565b34610185575f36600319011261018557610fd1611ae9565b600180546001600160a01b031981169091555f906001600160a01b03167f8be0079c531659141344cd1fd0a4f28419497f9722a3daafe3b4186f6b6457e08280a3005b34610185575f366003190112610185576020600b54604051908152f35b3461018557608036600319011261018557600435602435815f52600660205260405f2080541561039b57600481019160ff83541661106e81611922565b6002811415908161137f575b5061037d57600182015433600882901c6001600160a01b03161490811580611368575b61068857600c8401544211610cb6578260ff6110b99216611b10565b15610f7e57604051602081019083825260443560408201523360601b60608201526064356074820152607481526110f16094826119e9565b519020901561134c57600583015403610f7e57600782018054610f5d578190555b604051908152837fe3a512f2b722eba73136c0de5172e96c972b81970c46f27f849721a417c9ed0160203393a360078101541515908161133e575b50156113315750805f52600660205260405f2090600182019160ff8354169060078101549361117c8584611b10565b156112f45761119060088301548094611b10565b156112b75761122b946004938082111561122d57505080546009830180546001600160a01b031916600892831c6001600160a01b03908116919091179091559154811c9091165f9081526020919091526040902080546111ef90611a44565b905560028101546001600160a01b03165f908152600960205260409020805461121790611a44565b90555b01805460ff19166004179055611c0e565b005b111561129f5760028201546009830180546001600160a01b0319166001600160a01b039290921691821790555f908152600860205260409020805461127190611a44565b90555460081c6001600160a01b03165f908152600960205260409020805461129890611a44565b905561121a565b506009810180546001600160a01b031916905561121a565b60405162461bcd60e51b8152602060048201526015602482015274496e76616c696420706c61796572322073636f726560581b6044820152606490fd5b60405162461bcd60e51b8152602060048201526015602482015274496e76616c696420706c61796572312073636f726560581b6044820152606490fd5b805460ff19166003179055005b60089150015415158361114d565b600683015403610f7e57600882018054610f5d57819055611112565b5060028401546001600160a01b031633141561109d565b6003915061138c81611922565b14158561107a565b34610185576040366003190112610185576113ad611940565b6001600160a01b03165f90815260076020526040902080546024359190821015610185576020916113dd91611956565b90549060031b1c604051908152f35b3461018557602036600319011261018557600435611408611ae9565b6040516370a0823160e01b81523060048201527f00000000000000000000000000000000000000000000000000000000000000006001600160a01b031690602081602481855afa90811561032e575f9161150b575b5082116114cf5760015460405163a9059cbb60e01b81526001600160a01b0390911660048201526024810192909252602090829060449082905f905af190811561032e575f916114b0575b50156102f057005b6114c9915060203d6020116103275761031981836119e9565b816114a8565b60405162461bcd60e51b8152602060048201526014602482015273496e73756666696369656e742062616c616e636560601b6044820152606490fd5b90506020813d602011611535575b81611526602093836119e9565b8101031261018557518361145d565b3d9150611519565b346101855760203660031901126101855760406001600160a01b03611560611940565b16805f526008602052815f2054905f526009602052815f205482519182526020820152f35b34610185576020366003190112610185576004355f5260066020526101c060405f2080549060018101549060ff82169160018060a01b03600283015416600383015460ff600485015416600585015460068601549060078701549260088801549460018060a01b0360098a01541696600a8a015498600c600b8c01549b01549b60206040519e8f90815261161883611922565b015260081c6001600160a01b031660408d015260608c015260808b015261163e81611922565b60a08a015260c089015260e08801526101008701526101208601526101408501526101608401526101808301526101a0820152f35b34610185575f366003190112610185576020600454604051908152f35b34610185576020366003190112610185575f6101a06040516116b1816119b8565b8281528260208201528260408201528260608201528260808201528260a08201528260c08201528260e0820152826101008201528261012082015282610140820152826101608201528261018082015201526004355f5260066020526101c060405f20604051611720816119b8565b8154815260018201546020820192829160ff811661173d81611922565b855260081c6001600160a01b0390811660408401908152600283015490911660608401908152600383015460808501908152600484015460a086019060ff1661178581611922565b8152600585015460c0870190815260068601549160e0880192835260078701549361010089019485526008880154956101208a0196875260018060a01b0360098a015416976101408b01988952600c600a8b01549a6101608d019b8c52610180600b8201549d019c8d5201549b6101a081019c8d5260206040519e8f92518352519161181083611922565b0152516001600160a01b0390811660408e015290511660608c01525160808b01525161183b81611922565b60a08a01525160c08901525160e08801525161010087015251610120860152516001600160a01b03166101408501525161016084015251610180830152516101a0820152f35b34610185575f366003190112610185576040517f00000000000000000000000000000000000000000000000000000000000000006001600160a01b03168152602090f35b34610185576020366003190112610185576004356118e1611ae9565b600a81116118ee57600255005b60405162461bcd60e51b815260206004820152600c60248201526b08ccaca40e8dede40d0d2ced60a31b6044820152606490fd5b6006111561192c57565b634e487b7160e01b5f52602160045260245ffd5b600435906001600160a01b038216820361018557565b805482101561196b575f5260205f2001905f90565b634e487b7160e01b5f52603260045260245ffd5b60206040818301928281528451809452019201905f5b8181106119a25750505090565b8251845260209384019390920191600101611995565b6101c0810190811067ffffffffffffffff8211176119d557604052565b634e487b7160e01b5f52604160045260245ffd5b90601f8019910116810190811067ffffffffffffffff8211176119d557604052565b90816020910312610185575180151581036101855790565b91908201809211611a3057565b634e487b7160e01b5f52601160045260245ffd5b5f198114611a305760010190565b8054680100000000000000008110156119d557611a7491600182018155611956565b819291549060031b91821b915f19901b1916179055565b67ffffffffffffffff81116119d55760051b60200190565b90611aad82611a8b565b611aba60405191826119e9565b8281528092611acb601f1991611a8b565b0190602036910137565b805182101561196b5760209160051b010190565b6001546001600160a01b03163303611afd57565b63118cdaa760e01b5f523360045260245ffd5b611b1981611922565b80611b4657508015908115611b3b575b8115611b33575090565b606491501490565b603281149150611b29565b611b4f81611922565b60018103611b6b57506103e8101580611b655790565b50600190565b611b7481611922565b60028103611b8a57506101f4101580611b655790565b611b9381611922565b60038103611ba857506030101580611b655790565b611bb181611922565b60048103611bcd57508015908115611b3b578115611b33575090565b600590611bd981611922565b14611be357505f90565b610258101580611b655790565b60025f5414611bff5760025f55565b633ee5aeb560e01b5f5260045ffd5b805f52600660205260405f2090600382018054928360011b9380850460021490151715611a30576009810180549094906001600160a01b031680611d865750506001810154825460405163a9059cbb60e01b815260089290921c6001600160a01b03908116600484015260248301919091527f00000000000000000000000000000000000000000000000000000000000000001691906020816044815f875af190811561032e575f91611d67575b50156102f05760020154825460405163a9059cbb60e01b81526001600160a01b039092166004830152602482015290602090829060449082905f905af190811561032e575f91611d48575b50156102f05760207f0a2413835f07421c275d3e2feac4328391c22c9ed3db28c40b45b55a0c3a2ba69154935b546040519485526001600160a01b031693a3565b611d61915060203d6020116103275761031981836119e9565b5f611d07565b611d80915060203d6020116103275761031981836119e9565b5f611cbc565b9150939150600254808502908582041485151715611a30576064900490818503948511611a305760405163a9059cbb60e01b81526001600160a01b039182166004820152602481018690527f0000000000000000000000000000000000000000000000000000000000000000909116906020816044815f865af190811561032e575f91611ecc575b50156102f057818015159182611e5d575b50506102f0577f0a2413835f07421c275d3e2feac4328391c22c9ed3db28c40b45b55a0c3a2ba691611e55602092600b54611a23565b600b55611d34565b600a5460405163a9059cbb60e01b81526001600160a01b0390911660048201526024810192909252909150602090829060449082905f905af190811561032e575f91611ead575b5015815f611e1f565b611ec6915060203d6020116103275761031981836119e9565b5f611ea4565b611ee5915060203d6020116103275761031981836119e9565b5f611e0e56fea2646970667358221220cb8aea96a120524349c3e285a3b673d23e2d95b78dbf6e78717ebbfa8576e0e264736f6c634300081c0033",
  "linkReferences": {},
  "deployedLinkReferences": {},
  "immutableReferences": {
    "382": [
      {
        "length": 32,
        "start": 518
      },
      {
        "length": 32,
        "start": 1535
      },
      {
        "length": 32,
        "start": 1996
      },
      {
        "length": 32,
        "start": 5149
      },
      {
        "length": 32,
        "start": 6294
      },
      {
        "length": 32,
        "start": 7298
      },
      {
        "length": 32,
        "start": 7635
      }
    ]
  },
  "inputSourceName": "project/contract/MicroArena.sol",
  "buildInfoId": "solc-0_8_28-6fb0fbbab26b345bc52b9bbe8493492f14c0deb2"
}